{
  "address": "0x3BC3a519c9d7AF29d2085D2f94fA6e188a44E5f0",
  "abi": [
    {
      "inputs": [
        {
          "internalType": "uint256",
          "name": "initialSupply",
          "type": "uint256"
        }
      ],
      "stateMutability": "nonpayable",
      "type": "constructor"
    },
    {
      "anonymous": false,
      "inputs": [
        {
          "indexed": true,
          "internalType": "address",
          "name": "owner",
          "type": "address"
        },
        {
          "indexed": true,
          "internalType": "address",
          "name": "spender",
          "type": "address"
        },
        {
          "indexed": false,
          "internalType": "uint256",
          "name": "value",
          "type": "uint256"
        }
      ],
      "name": "Approval",
      "type": "event"
    },
    {
      "anonymous": false,
      "inputs": [
        {
          "indexed": true,
          "internalType": "address",
          "name": "account",
          "type": "address"
        },
        {
          "indexed": false,
          "internalType": "address",
          "name": "backupAddress",
          "type": "address"
        }
      ],
      "name": "BackupRegistered",
      "type": "event"
    },
    {
      "anonymous": false,
      "inputs": [
        {
          "indexed": true,
          "internalType": "address",
          "name": "account",
          "type": "address"
        },
        {
          "indexed": true,
          "internalType": "address",
          "name": "backupAddress",
          "type": "address"
        }
      ],
      "name": "EmergencyTransfer",
      "type": "event"
    },
    {
      "anonymous": false,
      "inputs": [
        {
          "indexed": true,
          "internalType": "address",
          "name": "from",
          "type": "address"
        },
        {
          "indexed": true,
          "internalType": "address",
          "name": "to",
          "type": "address"
        },
        {
          "indexed": false,
          "internalType": "uint256",
          "name": "value",
          "type": "uint256"
        }
      ],
      "name": "Transfer",
      "type": "event"
    },
    {
      "inputs": [],
      "name": "DOMAIN_TYPEHASH",
      "outputs": [
        {
          "internalType": "bytes32",
          "name": "",
          "type": "bytes32"
        }
      ],
      "stateMutability": "view",
      "type": "function"
    },
    {
      "inputs": [],
      "name": "TRANSFER_TYPEHASH",
      "outputs": [
        {
          "internalType": "bytes32",
          "name": "",
          "type": "bytes32"
        }
      ],
      "stateMutability": "view",
      "type": "function"
    },
    {
      "inputs": [
        {
          "internalType": "address",
          "name": "owner",
          "type": "address"
        },
        {
          "internalType": "address",
          "name": "spender",
          "type": "address"
        }
      ],
      "name": "allowance",
      "outputs": [
        {
          "internalType": "uint256",
          "name": "",
          "type": "uint256"
        }
      ],
      "stateMutability": "view",
      "type": "function"
    },
    {
      "inputs": [
        {
          "internalType": "address",
          "name": "spender",
          "type": "address"
        },
        {
          "internalType": "uint256",
          "name": "amount",
          "type": "uint256"
        }
      ],
      "name": "approve",
      "outputs": [
        {
          "internalType": "bool",
          "name": "",
          "type": "bool"
        }
      ],
      "stateMutability": "nonpayable",
      "type": "function"
    },
    {
      "inputs": [
        {
          "internalType": "address",
          "name": "account",
          "type": "address"
        }
      ],
      "name": "backupAddressOf",
      "outputs": [
        {
          "internalType": "address",
          "name": "",
          "type": "address"
        }
      ],
      "stateMutability": "view",
      "type": "function"
    },
    {
      "inputs": [
        {
          "internalType": "address",
          "name": "account",
          "type": "address"
        }
      ],
      "name": "balanceOf",
      "outputs": [
        {
          "internalType": "uint256",
          "name": "",
          "type": "uint256"
        }
      ],
      "stateMutability": "view",
      "type": "function"
    },
    {
      "inputs": [],
      "name": "decimals",
      "outputs": [
        {
          "internalType": "uint8",
          "name": "",
          "type": "uint8"
        }
      ],
      "stateMutability": "view",
      "type": "function"
    },
    {
      "inputs": [
        {
          "internalType": "address",
          "name": "spender",
          "type": "address"
        },
        {
          "internalType": "uint256",
          "name": "subtractedValue",
          "type": "uint256"
        }
      ],
      "name": "decreaseAllowance",
      "outputs": [
        {
          "internalType": "bool",
          "name": "",
          "type": "bool"
        }
      ],
      "stateMutability": "nonpayable",
      "type": "function"
    },
    {
      "inputs": [
        {
          "internalType": "address",
          "name": "spender",
          "type": "address"
        },
        {
          "internalType": "uint256",
          "name": "addedValue",
          "type": "uint256"
        }
      ],
      "name": "increaseAllowance",
      "outputs": [
        {
          "internalType": "bool",
          "name": "",
          "type": "bool"
        }
      ],
      "stateMutability": "nonpayable",
      "type": "function"
    },
    {
      "inputs": [],
      "name": "name",
      "outputs": [
        {
          "internalType": "string",
          "name": "",
          "type": "string"
        }
      ],
      "stateMutability": "view",
      "type": "function"
    },
    {
      "inputs": [
        {
          "internalType": "address",
          "name": "backupAddress",
          "type": "address"
        }
      ],
      "name": "registerBackupAddress",
      "outputs": [],
      "stateMutability": "nonpayable",
      "type": "function"
    },
    {
      "inputs": [],
      "name": "symbol",
      "outputs": [
        {
          "internalType": "string",
          "name": "",
          "type": "string"
        }
      ],
      "stateMutability": "view",
      "type": "function"
    },
    {
      "inputs": [],
      "name": "totalSupply",
      "outputs": [
        {
          "internalType": "uint256",
          "name": "",
          "type": "uint256"
        }
      ],
      "stateMutability": "view",
      "type": "function"
    },
    {
      "inputs": [
        {
          "internalType": "address",
          "name": "to",
          "type": "address"
        },
        {
          "internalType": "uint256",
          "name": "amount",
          "type": "uint256"
        }
      ],
      "name": "transfer",
      "outputs": [
        {
          "internalType": "bool",
          "name": "",
          "type": "bool"
        }
      ],
      "stateMutability": "nonpayable",
      "type": "function"
    },
    {
      "inputs": [
        {
          "internalType": "address",
          "name": "from",
          "type": "address"
        },
        {
          "internalType": "address",
          "name": "to",
          "type": "address"
        },
        {
          "internalType": "uint256",
          "name": "amount",
          "type": "uint256"
        }
      ],
      "name": "transferFrom",
      "outputs": [
        {
          "internalType": "bool",
          "name": "",
          "type": "bool"
        }
      ],
      "stateMutability": "nonpayable",
      "type": "function"
    },
    {
      "inputs": [
        {
          "internalType": "address",
          "name": "account",
          "type": "address"
        },
        {
          "internalType": "address",
          "name": "backupAddress",
          "type": "address"
        },
        {
          "internalType": "uint8",
          "name": "v",
          "type": "uint8"
        },
        {
          "internalType": "bytes32",
          "name": "r",
          "type": "bytes32"
        },
        {
          "internalType": "bytes32",
          "name": "s",
          "type": "bytes32"
        }
      ],
      "name": "transferViaSignature",
      "outputs": [],
      "stateMutability": "nonpayable",
      "type": "function"
    }
  ],
  "transactionHash": "0x8723f48473485d3a283689f9cbe847da771a67c2a557299f7cf552011762e6ee",
  "args": [
    10000000000000
  ],
  "numDeployments": 2,
  "solcInputHash": "6a7c5f4097e50dcd1e24cae5ac0dfc8f",
  "bytecode": "0x60806040527f8b73c3c69bb8fe3d512ecc4cf759cc79239f7b179b0ffacaa9a75d522b39400f6005553480156200003557600080fd5b50604051620026dc380380620026dc83398181016040528101906200005b9190620002bd565b6040518060400160405280600c81526020017f4261636b757020546f6b656e00000000000000000000000000000000000000008152506040518060400160405280600381526020017f42545400000000000000000000000000000000000000000000000000000000008152508160039081620000d891906200055f565b508060049081620000ea91906200055f565b505050620000ff33826200010660201b60201c565b5062000761565b600073ffffffffffffffffffffffffffffffffffffffff168273ffffffffffffffffffffffffffffffffffffffff160362000178576040517f08c379a00000000000000000000000000000000000000000000000000000000081526004016200016f90620006a7565b60405180910390fd5b6200018c600083836200027360201b60201c565b8060026000828254620001a09190620006f8565b92505081905550806000808473ffffffffffffffffffffffffffffffffffffffff1673ffffffffffffffffffffffffffffffffffffffff168152602001908152602001600020600082825401925050819055508173ffffffffffffffffffffffffffffffffffffffff16600073ffffffffffffffffffffffffffffffffffffffff167fddf252ad1be2c89b69c2b068fc378daa952ba7f163c4a11628f55a4df523b3ef8360405162000253919062000744565b60405180910390a36200026f600083836200027860201b60201c565b5050565b505050565b505050565b600080fd5b6000819050919050565b620002978162000282565b8114620002a357600080fd5b50565b600081519050620002b7816200028c565b92915050565b600060208284031215620002d657620002d56200027d565b5b6000620002e684828501620002a6565b91505092915050565b600081519050919050565b7f4e487b7100000000000000000000000000000000000000000000000000000000600052604160045260246000fd5b7f4e487b7100000000000000000000000000000000000000000000000000000000600052602260045260246000fd5b600060028204905060018216806200037157607f821691505b60208210810362000387576200038662000329565b5b50919050565b60008190508160005260206000209050919050565b60006020601f8301049050919050565b600082821b905092915050565b600060088302620003f17fffffffffffffffffffffffffffffffffffffffffffffffffffffffffffffffff82620003b2565b620003fd8683620003b2565b95508019841693508086168417925050509392505050565b6000819050919050565b6000620004406200043a620004348462000282565b62000415565b62000282565b9050919050565b6000819050919050565b6200045c836200041f565b620004746200046b8262000447565b848454620003bf565b825550505050565b600090565b6200048b6200047c565b6200049881848462000451565b505050565b5b81811015620004c057620004b460008262000481565b6001810190506200049e565b5050565b601f8211156200050f57620004d9816200038d565b620004e484620003a2565b81016020851015620004f4578190505b6200050c6200050385620003a2565b8301826200049d565b50505b505050565b600082821c905092915050565b6000620005346000198460080262000514565b1980831691505092915050565b60006200054f838362000521565b9150826002028217905092915050565b6200056a82620002ef565b67ffffffffffffffff811115620005865762000585620002fa565b5b62000592825462000358565b6200059f828285620004c4565b600060209050601f831160018114620005d75760008415620005c2578287015190505b620005ce858262000541565b8655506200063e565b601f198416620005e7866200038d565b60005b828110156200061157848901518255600182019150602085019450602081019050620005ea565b868310156200063157848901516200062d601f89168262000521565b8355505b6001600288020188555050505b505050505050565b600082825260208201905092915050565b7f45524332303a206d696e7420746f20746865207a65726f206164647265737300600082015250565b60006200068f601f8362000646565b91506200069c8262000657565b602082019050919050565b60006020820190508181036000830152620006c28162000680565b9050919050565b7f4e487b7100000000000000000000000000000000000000000000000000000000600052601160045260246000fd5b6000620007058262000282565b9150620007128362000282565b92508282019050808211156200072d576200072c620006c9565b5b92915050565b6200073e8162000282565b82525050565b60006020820190506200075b600083018462000733565b92915050565b611f6b80620007716000396000f3fe608060405234801561001057600080fd5b50600436106100ff5760003560e01c8063395093511161009757806395d89b411161006657806395d89b41146102c2578063a457c2d7146102e0578063a9059cbb14610310578063dd62ed3e14610340576100ff565b806339509351146102165780634a60762d14610246578063582355e81461027657806370a0823114610292576100ff565b806320606b70116100d357806320606b701461018e57806323b872dd146101ac5780632e39f34a146101dc578063313ce567146101f8576100ff565b8062bf26f41461010457806306fdde0314610122578063095ea7b31461014057806318160ddd14610170575b600080fd5b61010c610370565b60405161011991906112e0565b60405180910390f35b61012a610394565b604051610137919061138b565b60405180910390f35b61015a60048036038101906101559190611446565b610426565b60405161016791906114a1565b60405180910390f35b610178610449565b60405161018591906114cb565b60405180910390f35b610196610453565b6040516101a391906112e0565b60405180910390f35b6101c660048036038101906101c191906114e6565b610459565b6040516101d391906114a1565b60405180910390f35b6101f660048036038101906101f19190611539565b610488565b005b6102006105e6565b60405161020d9190611582565b60405180910390f35b610230600480360381019061022b9190611446565b6105ef565b60405161023d91906114a1565b60405180910390f35b610260600480360381019061025b9190611539565b610626565b60405161026d91906115ac565b60405180910390f35b610290600480360381019061028b919061161f565b61068f565b005b6102ac60048036038101906102a79190611539565b610a12565b6040516102b991906114cb565b60405180910390f35b6102ca610a5a565b6040516102d7919061138b565b60405180910390f35b6102fa60048036038101906102f59190611446565b610aec565b60405161030791906114a1565b60405180910390f35b61032a60048036038101906103259190611446565b610b63565b60405161033791906114a1565b60405180910390f35b61035a6004803603810190610355919061169a565b610b86565b60405161036791906114cb565b60405180910390f35b7f4785e700828dc932a957960dd6e07261795e9fa9c23d0b727f8c8c722def49e381565b6060600380546103a390611709565b80601f01602080910402602001604051908101604052809291908181526020018280546103cf90611709565b801561041c5780601f106103f15761010080835404028352916020019161041c565b820191906000526020600020905b8154815290600101906020018083116103ff57829003601f168201915b5050505050905090565b600080610431610c0d565b905061043e818585610c15565b600191505092915050565b6000600254905090565b60055481565b600080610464610c0d565b9050610471858285610dde565b61047c858585610e6a565b60019150509392505050565b33600760008273ffffffffffffffffffffffffffffffffffffffff1673ffffffffffffffffffffffffffffffffffffffff16815260200190815260200160002060009054906101000a900460ff1615610516576040517f08c379a000000000000000000000000000000000000000000000000000000000815260040161050d90611786565b60405180910390fd5b81600660003373ffffffffffffffffffffffffffffffffffffffff1673ffffffffffffffffffffffffffffffffffffffff16815260200190815260200160002060006101000a81548173ffffffffffffffffffffffffffffffffffffffff021916908373ffffffffffffffffffffffffffffffffffffffff1602179055503373ffffffffffffffffffffffffffffffffffffffff167fbb8e7b754197a70825e65b3442d518d8eb4992f6f28a67244a91485d7b52d16d836040516105da91906115ac565b60405180910390a25050565b60006012905090565b6000806105fa610c0d565b905061061b81858561060c8589610b86565b61061691906117d5565b610c15565b600191505092915050565b6000600660008373ffffffffffffffffffffffffffffffffffffffff1673ffffffffffffffffffffffffffffffffffffffff16815260200190815260200160002060009054906101000a900473ffffffffffffffffffffffffffffffffffffffff169050919050565b84600760008273ffffffffffffffffffffffffffffffffffffffff1673ffffffffffffffffffffffffffffffffffffffff16815260200190815260200160002060009054906101000a900460ff161561071d576040517f08c379a000000000000000000000000000000000000000000000000000000000815260040161071490611786565b60405180910390fd5b8473ffffffffffffffffffffffffffffffffffffffff16600660008873ffffffffffffffffffffffffffffffffffffffff1673ffffffffffffffffffffffffffffffffffffffff16815260200190815260200160002060009054906101000a900473ffffffffffffffffffffffffffffffffffffffff1673ffffffffffffffffffffffffffffffffffffffff16146107ea576040517f08c379a00000000000000000000000000000000000000000000000000000000081526004016107e190611855565b60405180910390fd5b60006107f587610a12565b11610835576040517f08c379a000000000000000000000000000000000000000000000000000000000815260040161082c906118e7565b60405180910390fd5b600061084187876110e0565b90506000600182878787604051600081526020016040526040516108689493929190611907565b6020604051602081039080840390855afa15801561088a573d6000803e3d6000fd5b5050506020604051035190508773ffffffffffffffffffffffffffffffffffffffff168173ffffffffffffffffffffffffffffffffffffffff1614610904576040517f08c379a00000000000000000000000000000000000000000000000000000000081526004016108fb90611998565b60405180910390fd5b61091788886109128b610a12565b611216565b610956576040517f08c379a000000000000000000000000000000000000000000000000000000000815260040161094d90611a04565b60405180910390fd5b6001600760008a73ffffffffffffffffffffffffffffffffffffffff1673ffffffffffffffffffffffffffffffffffffffff16815260200190815260200160002060006101000a81548160ff0219169083151502179055508673ffffffffffffffffffffffffffffffffffffffff168873ffffffffffffffffffffffffffffffffffffffff167f4138cdc40326ccd3220be847f61e96eacf02502900a5865296670fbfcef8cf0860405160405180910390a35050505050505050565b60008060008373ffffffffffffffffffffffffffffffffffffffff1673ffffffffffffffffffffffffffffffffffffffff168152602001908152602001600020549050919050565b606060048054610a6990611709565b80601f0160208091040260200160405190810160405280929190818152602001828054610a9590611709565b8015610ae25780601f10610ab757610100808354040283529160200191610ae2565b820191906000526020600020905b815481529060010190602001808311610ac557829003601f168201915b5050505050905090565b600080610af7610c0d565b90506000610b058286610b86565b905083811015610b4a576040517f08c379a0000000000000000000000000000000000000000000000000000000008152600401610b4190611a96565b60405180910390fd5b610b578286868403610c15565b60019250505092915050565b600080610b6e610c0d565b9050610b7b818585610e6a565b600191505092915050565b6000600160008473ffffffffffffffffffffffffffffffffffffffff1673ffffffffffffffffffffffffffffffffffffffff16815260200190815260200160002060008373ffffffffffffffffffffffffffffffffffffffff1673ffffffffffffffffffffffffffffffffffffffff16815260200190815260200160002054905092915050565b600033905090565b600073ffffffffffffffffffffffffffffffffffffffff168373ffffffffffffffffffffffffffffffffffffffff1603610c84576040517f08c379a0000000000000000000000000000000000000000000000000000000008152600401610c7b90611b28565b60405180910390fd5b600073ffffffffffffffffffffffffffffffffffffffff168273ffffffffffffffffffffffffffffffffffffffff1603610cf3576040517f08c379a0000000000000000000000000000000000000000000000000000000008152600401610cea90611bba565b60405180910390fd5b80600160008573ffffffffffffffffffffffffffffffffffffffff1673ffffffffffffffffffffffffffffffffffffffff16815260200190815260200160002060008473ffffffffffffffffffffffffffffffffffffffff1673ffffffffffffffffffffffffffffffffffffffff168152602001908152602001600020819055508173ffffffffffffffffffffffffffffffffffffffff168373ffffffffffffffffffffffffffffffffffffffff167f8c5be1e5ebec7d5bd14f71427d1e84f3dd0314c0f7b2291e5b200ac8c7c3b92583604051610dd191906114cb565b60405180910390a3505050565b6000610dea8484610b86565b90507fffffffffffffffffffffffffffffffffffffffffffffffffffffffffffffffff8114610e645781811015610e56576040517f08c379a0000000000000000000000000000000000000000000000000000000008152600401610e4d90611c26565b60405180910390fd5b610e638484848403610c15565b5b50505050565b600073ffffffffffffffffffffffffffffffffffffffff168373ffffffffffffffffffffffffffffffffffffffff1603610ed9576040517f08c379a0000000000000000000000000000000000000000000000000000000008152600401610ed090611cb8565b60405180910390fd5b600073ffffffffffffffffffffffffffffffffffffffff168273ffffffffffffffffffffffffffffffffffffffff1603610f48576040517f08c379a0000000000000000000000000000000000000000000000000000000008152600401610f3f90611d4a565b60405180910390fd5b610f538383836112bd565b60008060008573ffffffffffffffffffffffffffffffffffffffff1673ffffffffffffffffffffffffffffffffffffffff16815260200190815260200160002054905081811015610fd9576040517f08c379a0000000000000000000000000000000000000000000000000000000008152600401610fd090611ddc565b60405180910390fd5b8181036000808673ffffffffffffffffffffffffffffffffffffffff1673ffffffffffffffffffffffffffffffffffffffff16815260200190815260200160002081905550816000808573ffffffffffffffffffffffffffffffffffffffff1673ffffffffffffffffffffffffffffffffffffffff168152602001908152602001600020600082825401925050819055508273ffffffffffffffffffffffffffffffffffffffff168473ffffffffffffffffffffffffffffffffffffffff167fddf252ad1be2c89b69c2b068fc378daa952ba7f163c4a11628f55a4df523b3ef846040516110c791906114cb565b60405180910390a36110da8484846112c2565b50505050565b6000806005546040518060400160405280600c81526020017f4261636b757020546f6b656e0000000000000000000000000000000000000000815250805190602001206040518060400160405280600181526020017f3100000000000000000000000000000000000000000000000000000000000000815250805190602001204630604051602001611176959493929190611dfc565b60405160208183030381529060405280519060200120905060007f4785e700828dc932a957960dd6e07261795e9fa9c23d0b727f8c8c722def49e385856040516020016111c593929190611e4f565b604051602081830303815290604052805190602001209050600082826040516020016111f2929190611efe565b60405160208183030381529060405280519060200120905080935050505092915050565b600083600760008273ffffffffffffffffffffffffffffffffffffffff1673ffffffffffffffffffffffffffffffffffffffff16815260200190815260200160002060009054906101000a900460ff16156112a6576040517f08c379a000000000000000000000000000000000000000000000000000000000815260040161129d90611786565b60405180910390fd5b6112b1858585610e6a565b60019150509392505050565b505050565b505050565b6000819050919050565b6112da816112c7565b82525050565b60006020820190506112f560008301846112d1565b92915050565b600081519050919050565b600082825260208201905092915050565b60005b8381101561133557808201518184015260208101905061131a565b60008484015250505050565b6000601f19601f8301169050919050565b600061135d826112fb565b6113678185611306565b9350611377818560208601611317565b61138081611341565b840191505092915050565b600060208201905081810360008301526113a58184611352565b905092915050565b600080fd5b600073ffffffffffffffffffffffffffffffffffffffff82169050919050565b60006113dd826113b2565b9050919050565b6113ed816113d2565b81146113f857600080fd5b50565b60008135905061140a816113e4565b92915050565b6000819050919050565b61142381611410565b811461142e57600080fd5b50565b6000813590506114408161141a565b92915050565b6000806040838503121561145d5761145c6113ad565b5b600061146b858286016113fb565b925050602061147c85828601611431565b9150509250929050565b60008115159050919050565b61149b81611486565b82525050565b60006020820190506114b66000830184611492565b92915050565b6114c581611410565b82525050565b60006020820190506114e060008301846114bc565b92915050565b6000806000606084860312156114ff576114fe6113ad565b5b600061150d868287016113fb565b935050602061151e868287016113fb565b925050604061152f86828701611431565b9150509250925092565b60006020828403121561154f5761154e6113ad565b5b600061155d848285016113fb565b91505092915050565b600060ff82169050919050565b61157c81611566565b82525050565b60006020820190506115976000830184611573565b92915050565b6115a6816113d2565b82525050565b60006020820190506115c1600083018461159d565b92915050565b6115d081611566565b81146115db57600080fd5b50565b6000813590506115ed816115c7565b92915050565b6115fc816112c7565b811461160757600080fd5b50565b600081359050611619816115f3565b92915050565b600080600080600060a0868803121561163b5761163a6113ad565b5b6000611649888289016113fb565b955050602061165a888289016113fb565b945050604061166b888289016115de565b935050606061167c8882890161160a565b925050608061168d8882890161160a565b9150509295509295909350565b600080604083850312156116b1576116b06113ad565b5b60006116bf858286016113fb565b92505060206116d0858286016113fb565b9150509250929050565b7f4e487b7100000000000000000000000000000000000000000000000000000000600052602260045260246000fd5b6000600282049050600182168061172157607f821691505b602082108103611734576117336116da565b5b50919050565b7f526563697069656e7420697320626c61636b6c69737465640000000000000000600082015250565b6000611770601883611306565b915061177b8261173a565b602082019050919050565b6000602082019050818103600083015261179f81611763565b9050919050565b7f4e487b7100000000000000000000000000000000000000000000000000000000600052601160045260246000fd5b60006117e082611410565b91506117eb83611410565b9250828201905080821115611803576118026117a6565b5b92915050565b7f496e76616c6964206261636b7570206164647265737300000000000000000000600082015250565b600061183f601683611306565b915061184a82611809565b602082019050919050565b6000602082019050818103600083015261186e81611832565b9050919050565b7f4163636f756e742062616c616e6365206973207a65726f2c206e6f7468696e6760008201527f20746f207472616e736665720000000000000000000000000000000000000000602082015250565b60006118d1602c83611306565b91506118dc82611875565b604082019050919050565b60006020820190508181036000830152611900816118c4565b9050919050565b600060808201905061191c60008301876112d1565b6119296020830186611573565b61193660408301856112d1565b61194360608301846112d1565b95945050505050565b7f496e76616c6964207369676e6174757265000000000000000000000000000000600082015250565b6000611982601183611306565b915061198d8261194c565b602082019050919050565b600060208201905081810360008301526119b181611975565b9050919050565b7f5472616e73666572206661696c65640000000000000000000000000000000000600082015250565b60006119ee600f83611306565b91506119f9826119b8565b602082019050919050565b60006020820190508181036000830152611a1d816119e1565b9050919050565b7f45524332303a2064656372656173656420616c6c6f77616e63652062656c6f7760008201527f207a65726f000000000000000000000000000000000000000000000000000000602082015250565b6000611a80602583611306565b9150611a8b82611a24565b604082019050919050565b60006020820190508181036000830152611aaf81611a73565b9050919050565b7f45524332303a20617070726f76652066726f6d20746865207a65726f2061646460008201527f7265737300000000000000000000000000000000000000000000000000000000602082015250565b6000611b12602483611306565b9150611b1d82611ab6565b604082019050919050565b60006020820190508181036000830152611b4181611b05565b9050919050565b7f45524332303a20617070726f766520746f20746865207a65726f20616464726560008201527f7373000000000000000000000000000000000000000000000000000000000000602082015250565b6000611ba4602283611306565b9150611baf82611b48565b604082019050919050565b60006020820190508181036000830152611bd381611b97565b9050919050565b7f45524332303a20696e73756666696369656e7420616c6c6f77616e6365000000600082015250565b6000611c10601d83611306565b9150611c1b82611bda565b602082019050919050565b60006020820190508181036000830152611c3f81611c03565b9050919050565b7f45524332303a207472616e736665722066726f6d20746865207a65726f20616460008201527f6472657373000000000000000000000000000000000000000000000000000000602082015250565b6000611ca2602583611306565b9150611cad82611c46565b604082019050919050565b60006020820190508181036000830152611cd181611c95565b9050919050565b7f45524332303a207472616e7366657220746f20746865207a65726f206164647260008201527f6573730000000000000000000000000000000000000000000000000000000000602082015250565b6000611d34602383611306565b9150611d3f82611cd8565b604082019050919050565b60006020820190508181036000830152611d6381611d27565b9050919050565b7f45524332303a207472616e7366657220616d6f756e742065786365656473206260008201527f616c616e63650000000000000000000000000000000000000000000000000000602082015250565b6000611dc6602683611306565b9150611dd182611d6a565b604082019050919050565b60006020820190508181036000830152611df581611db9565b9050919050565b600060a082019050611e1160008301886112d1565b611e1e60208301876112d1565b611e2b60408301866112d1565b611e3860608301856114bc565b611e45608083018461159d565b9695505050505050565b6000606082019050611e6460008301866112d1565b611e71602083018561159d565b611e7e604083018461159d565b949350505050565b600081905092915050565b7f1901000000000000000000000000000000000000000000000000000000000000600082015250565b6000611ec7600283611e86565b9150611ed282611e91565b600282019050919050565b6000819050919050565b611ef8611ef3826112c7565b611edd565b82525050565b6000611f0982611eba565b9150611f158285611ee7565b602082019150611f258284611ee7565b602082019150819050939250505056fea26469706673582212200c26e495d22ff343b503c43813fc879af3b2a4d57f776fba29f3f0626a605c7b64736f6c63430008110033",
  "devdoc": {
    "kind": "dev",
    "methods": {
      "allowance(address,address)": {
        "details": "See {IERC20-allowance}."
      },
      "approve(address,uint256)": {
        "details": "See {IERC20-approve}. NOTE: If `amount` is the maximum `uint256`, the allowance is not updated on `transferFrom`. This is semantically equivalent to an infinite approval. Requirements: - `spender` cannot be the zero address."
      },
      "balanceOf(address)": {
        "details": "See {IERC20-balanceOf}."
      },
      "decimals()": {
        "details": "Returns the number of decimals used to get its user representation. For example, if `decimals` equals `2`, a balance of `505` tokens should be displayed to a user as `5.05` (`505 / 10 ** 2`). Tokens usually opt for a value of 18, imitating the relationship between Ether and Wei. This is the value {ERC20} uses, unless this function is overridden; NOTE: This information is only used for _display_ purposes: it in no way affects any of the arithmetic of the contract, including {IERC20-balanceOf} and {IERC20-transfer}."
      },
      "decreaseAllowance(address,uint256)": {
        "details": "Atomically decreases the allowance granted to `spender` by the caller. This is an alternative to {approve} that can be used as a mitigation for problems described in {IERC20-approve}. Emits an {Approval} event indicating the updated allowance. Requirements: - `spender` cannot be the zero address. - `spender` must have allowance for the caller of at least `subtractedValue`."
      },
      "increaseAllowance(address,uint256)": {
        "details": "Atomically increases the allowance granted to `spender` by the caller. This is an alternative to {approve} that can be used as a mitigation for problems described in {IERC20-approve}. Emits an {Approval} event indicating the updated allowance. Requirements: - `spender` cannot be the zero address."
      },
      "name()": {
        "details": "Returns the name of the token."
      },
      "symbol()": {
        "details": "Returns the symbol of the token, usually a shorter version of the name."
      },
      "totalSupply()": {
        "details": "See {IERC20-totalSupply}."
      },
      "transfer(address,uint256)": {
        "details": "See {IERC20-transfer}. Requirements: - `to` cannot be the zero address. - the caller must have a balance of at least `amount`."
      },
      "transferFrom(address,address,uint256)": {
        "details": "See {IERC20-transferFrom}. Emits an {Approval} event indicating the updated allowance. This is not required by the EIP. See the note at the beginning of {ERC20}. NOTE: Does not update the allowance if the current allowance is the maximum `uint256`. Requirements: - `from` and `to` cannot be the zero address. - `from` must have a balance of at least `amount`. - the caller must have allowance for ``from``'s tokens of at least `amount`."
      },
      "transferViaSignature(address,address,uint8,bytes32,bytes32)": {
        "params": {
          "account": "Address of the account that owns the tokens",
          "backupAddress": "Address of the backup account",
          "r": "Signature parameter",
          "s": "Signature parameter",
          "v": "Signature parameter"
        }
      }
    },
    "version": 1
  },
  "userdoc": {
    "kind": "user",
    "methods": {
      "transferViaSignature(address,address,uint8,bytes32,bytes32)": {
        "notice": "Move tokens from `account` to `backupAddress` using EIP712 signature that can be sent from arbitrary wallet"
      }
    },
    "version": 1
  },
  "storageLayout": {
    "storage": [
      {
        "astId": 15,
        "contract": "contracts/EIP712BackupToken.sol:EIP712BackupToken",
        "label": "_balances",
        "offset": 0,
        "slot": "0",
        "type": "t_mapping(t_address,t_uint256)"
      },
      {
        "astId": 21,
        "contract": "contracts/EIP712BackupToken.sol:EIP712BackupToken",
        "label": "_allowances",
        "offset": 0,
        "slot": "1",
        "type": "t_mapping(t_address,t_mapping(t_address,t_uint256))"
      },
      {
        "astId": 23,
        "contract": "contracts/EIP712BackupToken.sol:EIP712BackupToken",
        "label": "_totalSupply",
        "offset": 0,
        "slot": "2",
        "type": "t_uint256"
      },
      {
        "astId": 25,
        "contract": "contracts/EIP712BackupToken.sol:EIP712BackupToken",
        "label": "_name",
        "offset": 0,
        "slot": "3",
        "type": "t_string_storage"
      },
      {
        "astId": 27,
        "contract": "contracts/EIP712BackupToken.sol:EIP712BackupToken",
        "label": "_symbol",
        "offset": 0,
        "slot": "4",
        "type": "t_string_storage"
      },
      {
        "astId": 722,
        "contract": "contracts/EIP712BackupToken.sol:EIP712BackupToken",
        "label": "DOMAIN_TYPEHASH",
        "offset": 0,
        "slot": "5",
        "type": "t_bytes32"
      },
      {
        "astId": 743,
        "contract": "contracts/EIP712BackupToken.sol:EIP712BackupToken",
        "label": "backups",
        "offset": 0,
        "slot": "6",
        "type": "t_mapping(t_address,t_address)"
      },
      {
        "astId": 747,
        "contract": "contracts/EIP712BackupToken.sol:EIP712BackupToken",
        "label": "blacklisted",
        "offset": 0,
        "slot": "7",
        "type": "t_mapping(t_address,t_bool)"
      }
    ],
    "types": {
      "t_address": {
        "encoding": "inplace",
        "label": "address",
        "numberOfBytes": "20"
      },
      "t_bool": {
        "encoding": "inplace",
        "label": "bool",
        "numberOfBytes": "1"
      },
      "t_bytes32": {
        "encoding": "inplace",
        "label": "bytes32",
        "numberOfBytes": "32"
      },
      "t_mapping(t_address,t_address)": {
        "encoding": "mapping",
        "key": "t_address",
        "label": "mapping(address => address)",
        "numberOfBytes": "32",
        "value": "t_address"
      },
      "t_mapping(t_address,t_bool)": {
        "encoding": "mapping",
        "key": "t_address",
        "label": "mapping(address => bool)",
        "numberOfBytes": "32",
        "value": "t_bool"
      },
      "t_mapping(t_address,t_mapping(t_address,t_uint256))": {
        "encoding": "mapping",
        "key": "t_address",
        "label": "mapping(address => mapping(address => uint256))",
        "numberOfBytes": "32",
        "value": "t_mapping(t_address,t_uint256)"
      },
      "t_mapping(t_address,t_uint256)": {
        "encoding": "mapping",
        "key": "t_address",
        "label": "mapping(address => uint256)",
        "numberOfBytes": "32",
        "value": "t_uint256"
      },
      "t_string_storage": {
        "encoding": "bytes",
        "label": "string",
        "numberOfBytes": "32"
      },
      "t_uint256": {
        "encoding": "inplace",
        "label": "uint256",
        "numberOfBytes": "32"
      }
    }
  }
}