{
  "address": "0x5d917214700E06bfA0D600D3b831A4B0a40E2d0e",
  "abi": [
    {
      "inputs": [
        {
          "internalType": "uint256",
          "name": "initialSupply",
          "type": "uint256"
        }
      ],
      "stateMutability": "nonpayable",
      "type": "constructor"
    },
    {
      "anonymous": false,
      "inputs": [
        {
          "indexed": true,
          "internalType": "address",
          "name": "owner",
          "type": "address"
        },
        {
          "indexed": true,
          "internalType": "address",
          "name": "spender",
          "type": "address"
        },
        {
          "indexed": false,
          "internalType": "uint256",
          "name": "value",
          "type": "uint256"
        }
      ],
      "name": "Approval",
      "type": "event"
    },
    {
      "anonymous": false,
      "inputs": [
        {
          "indexed": true,
          "internalType": "address",
          "name": "account",
          "type": "address"
        },
        {
          "indexed": false,
          "internalType": "address",
          "name": "backupAddress",
          "type": "address"
        }
      ],
      "name": "BackupRegistered",
      "type": "event"
    },
    {
      "anonymous": false,
      "inputs": [
        {
          "indexed": true,
          "internalType": "address",
          "name": "account",
          "type": "address"
        },
        {
          "indexed": true,
          "internalType": "address",
          "name": "backupAddress",
          "type": "address"
        }
      ],
      "name": "EmergencyTransfer",
      "type": "event"
    },
    {
      "anonymous": false,
      "inputs": [
        {
          "indexed": true,
          "internalType": "address",
          "name": "from",
          "type": "address"
        },
        {
          "indexed": true,
          "internalType": "address",
          "name": "to",
          "type": "address"
        },
        {
          "indexed": false,
          "internalType": "uint256",
          "name": "value",
          "type": "uint256"
        }
      ],
      "name": "Transfer",
      "type": "event"
    },
    {
      "inputs": [],
      "name": "DOMAIN_TYPEHASH",
      "outputs": [
        {
          "internalType": "bytes32",
          "name": "",
          "type": "bytes32"
        }
      ],
      "stateMutability": "view",
      "type": "function"
    },
    {
      "inputs": [],
      "name": "TRANSFER_TYPEHASH",
      "outputs": [
        {
          "internalType": "bytes32",
          "name": "",
          "type": "bytes32"
        }
      ],
      "stateMutability": "view",
      "type": "function"
    },
    {
      "inputs": [
        {
          "internalType": "address",
          "name": "owner",
          "type": "address"
        },
        {
          "internalType": "address",
          "name": "spender",
          "type": "address"
        }
      ],
      "name": "allowance",
      "outputs": [
        {
          "internalType": "uint256",
          "name": "",
          "type": "uint256"
        }
      ],
      "stateMutability": "view",
      "type": "function"
    },
    {
      "inputs": [
        {
          "internalType": "address",
          "name": "spender",
          "type": "address"
        },
        {
          "internalType": "uint256",
          "name": "amount",
          "type": "uint256"
        }
      ],
      "name": "approve",
      "outputs": [
        {
          "internalType": "bool",
          "name": "",
          "type": "bool"
        }
      ],
      "stateMutability": "nonpayable",
      "type": "function"
    },
    {
      "inputs": [
        {
          "internalType": "address",
          "name": "account",
          "type": "address"
        }
      ],
      "name": "backupAddressOf",
      "outputs": [
        {
          "internalType": "address",
          "name": "",
          "type": "address"
        }
      ],
      "stateMutability": "view",
      "type": "function"
    },
    {
      "inputs": [
        {
          "internalType": "address",
          "name": "account",
          "type": "address"
        }
      ],
      "name": "balanceOf",
      "outputs": [
        {
          "internalType": "uint256",
          "name": "",
          "type": "uint256"
        }
      ],
      "stateMutability": "view",
      "type": "function"
    },
    {
      "inputs": [],
      "name": "decimals",
      "outputs": [
        {
          "internalType": "uint8",
          "name": "",
          "type": "uint8"
        }
      ],
      "stateMutability": "view",
      "type": "function"
    },
    {
      "inputs": [
        {
          "internalType": "address",
          "name": "spender",
          "type": "address"
        },
        {
          "internalType": "uint256",
          "name": "subtractedValue",
          "type": "uint256"
        }
      ],
      "name": "decreaseAllowance",
      "outputs": [
        {
          "internalType": "bool",
          "name": "",
          "type": "bool"
        }
      ],
      "stateMutability": "nonpayable",
      "type": "function"
    },
    {
      "inputs": [
        {
          "internalType": "address",
          "name": "spender",
          "type": "address"
        },
        {
          "internalType": "uint256",
          "name": "addedValue",
          "type": "uint256"
        }
      ],
      "name": "increaseAllowance",
      "outputs": [
        {
          "internalType": "bool",
          "name": "",
          "type": "bool"
        }
      ],
      "stateMutability": "nonpayable",
      "type": "function"
    },
    {
      "inputs": [],
      "name": "name",
      "outputs": [
        {
          "internalType": "string",
          "name": "",
          "type": "string"
        }
      ],
      "stateMutability": "view",
      "type": "function"
    },
    {
      "inputs": [
        {
          "internalType": "address",
          "name": "backupAddress",
          "type": "address"
        }
      ],
      "name": "registerBackupAddress",
      "outputs": [],
      "stateMutability": "nonpayable",
      "type": "function"
    },
    {
      "inputs": [],
      "name": "symbol",
      "outputs": [
        {
          "internalType": "string",
          "name": "",
          "type": "string"
        }
      ],
      "stateMutability": "view",
      "type": "function"
    },
    {
      "inputs": [],
      "name": "totalSupply",
      "outputs": [
        {
          "internalType": "uint256",
          "name": "",
          "type": "uint256"
        }
      ],
      "stateMutability": "view",
      "type": "function"
    },
    {
      "inputs": [
        {
          "internalType": "address",
          "name": "to",
          "type": "address"
        },
        {
          "internalType": "uint256",
          "name": "amount",
          "type": "uint256"
        }
      ],
      "name": "transfer",
      "outputs": [
        {
          "internalType": "bool",
          "name": "",
          "type": "bool"
        }
      ],
      "stateMutability": "nonpayable",
      "type": "function"
    },
    {
      "inputs": [
        {
          "internalType": "address",
          "name": "from",
          "type": "address"
        },
        {
          "internalType": "address",
          "name": "to",
          "type": "address"
        },
        {
          "internalType": "uint256",
          "name": "amount",
          "type": "uint256"
        }
      ],
      "name": "transferFrom",
      "outputs": [
        {
          "internalType": "bool",
          "name": "",
          "type": "bool"
        }
      ],
      "stateMutability": "nonpayable",
      "type": "function"
    },
    {
      "inputs": [
        {
          "internalType": "address",
          "name": "account",
          "type": "address"
        },
        {
          "internalType": "address",
          "name": "backupAddress",
          "type": "address"
        },
        {
          "internalType": "uint8",
          "name": "v",
          "type": "uint8"
        },
        {
          "internalType": "bytes32",
          "name": "r",
          "type": "bytes32"
        },
        {
          "internalType": "bytes32",
          "name": "s",
          "type": "bytes32"
        }
      ],
      "name": "transferViaSignature",
      "outputs": [],
      "stateMutability": "nonpayable",
      "type": "function"
    }
  ],
  "transactionHash": "0x06110bb7c65c5bc8ddc2be7e04c14a4f4e846f612d8e6f10e9be4e3850126c11",
  "args": [
    10000000000000
  ],
  "numDeployments": 1,
  "solcInputHash": "2b826f12f325685f61ac53868921947e",
  "bytecode": "0x60806040527f8b73c3c69bb8fe3d512ecc4cf759cc79239f7b179b0ffacaa9a75d522b39400f6005553480156200003557600080fd5b50604051620025ff380380620025ff83398181016040528101906200005b9190620002bd565b6040518060400160405280600c81526020017f4261636b757020546f6b656e00000000000000000000000000000000000000008152506040518060400160405280600381526020017f42545400000000000000000000000000000000000000000000000000000000008152508160039081620000d891906200055f565b508060049081620000ea91906200055f565b505050620000ff33826200010660201b60201c565b5062000761565b600073ffffffffffffffffffffffffffffffffffffffff168273ffffffffffffffffffffffffffffffffffffffff160362000178576040517f08c379a00000000000000000000000000000000000000000000000000000000081526004016200016f90620006a7565b60405180910390fd5b6200018c600083836200027360201b60201c565b8060026000828254620001a09190620006f8565b92505081905550806000808473ffffffffffffffffffffffffffffffffffffffff1673ffffffffffffffffffffffffffffffffffffffff168152602001908152602001600020600082825401925050819055508173ffffffffffffffffffffffffffffffffffffffff16600073ffffffffffffffffffffffffffffffffffffffff167fddf252ad1be2c89b69c2b068fc378daa952ba7f163c4a11628f55a4df523b3ef8360405162000253919062000744565b60405180910390a36200026f600083836200027860201b60201c565b5050565b505050565b505050565b600080fd5b6000819050919050565b620002978162000282565b8114620002a357600080fd5b50565b600081519050620002b7816200028c565b92915050565b600060208284031215620002d657620002d56200027d565b5b6000620002e684828501620002a6565b91505092915050565b600081519050919050565b7f4e487b7100000000000000000000000000000000000000000000000000000000600052604160045260246000fd5b7f4e487b7100000000000000000000000000000000000000000000000000000000600052602260045260246000fd5b600060028204905060018216806200037157607f821691505b60208210810362000387576200038662000329565b5b50919050565b60008190508160005260206000209050919050565b60006020601f8301049050919050565b600082821b905092915050565b600060088302620003f17fffffffffffffffffffffffffffffffffffffffffffffffffffffffffffffffff82620003b2565b620003fd8683620003b2565b95508019841693508086168417925050509392505050565b6000819050919050565b6000620004406200043a620004348462000282565b62000415565b62000282565b9050919050565b6000819050919050565b6200045c836200041f565b620004746200046b8262000447565b848454620003bf565b825550505050565b600090565b6200048b6200047c565b6200049881848462000451565b505050565b5b81811015620004c057620004b460008262000481565b6001810190506200049e565b5050565b601f8211156200050f57620004d9816200038d565b620004e484620003a2565b81016020851015620004f4578190505b6200050c6200050385620003a2565b8301826200049d565b50505b505050565b600082821c905092915050565b6000620005346000198460080262000514565b1980831691505092915050565b60006200054f838362000521565b9150826002028217905092915050565b6200056a82620002ef565b67ffffffffffffffff811115620005865762000585620002fa565b5b62000592825462000358565b6200059f828285620004c4565b600060209050601f831160018114620005d75760008415620005c2578287015190505b620005ce858262000541565b8655506200063e565b601f198416620005e7866200038d565b60005b828110156200061157848901518255600182019150602085019450602081019050620005ea565b868310156200063157848901516200062d601f89168262000521565b8355505b6001600288020188555050505b505050505050565b600082825260208201905092915050565b7f45524332303a206d696e7420746f20746865207a65726f206164647265737300600082015250565b60006200068f601f8362000646565b91506200069c8262000657565b602082019050919050565b60006020820190508181036000830152620006c28162000680565b9050919050565b7f4e487b7100000000000000000000000000000000000000000000000000000000600052601160045260246000fd5b6000620007058262000282565b9150620007128362000282565b92508282019050808211156200072d576200072c620006c9565b5b92915050565b6200073e8162000282565b82525050565b60006020820190506200075b600083018462000733565b92915050565b611e8e80620007716000396000f3fe608060405234801561001057600080fd5b50600436106100ff5760003560e01c8063395093511161009757806395d89b411161006657806395d89b41146102c2578063a457c2d7146102e0578063a9059cbb14610310578063dd62ed3e14610340576100ff565b806339509351146102165780634a60762d14610246578063582355e81461027657806370a0823114610292576100ff565b806320606b70116100d357806320606b701461018e57806323b872dd146101ac5780632e39f34a146101dc578063313ce567146101f8576100ff565b8062bf26f41461010457806306fdde0314610122578063095ea7b31461014057806318160ddd14610170575b600080fd5b61010c610370565b6040516101199190611295565b60405180910390f35b61012a610394565b6040516101379190611340565b60405180910390f35b61015a600480360381019061015591906113fb565b610426565b6040516101679190611456565b60405180910390f35b610178610449565b6040516101859190611480565b60405180910390f35b610196610453565b6040516101a39190611295565b60405180910390f35b6101c660048036038101906101c1919061149b565b610459565b6040516101d39190611456565b60405180910390f35b6101f660048036038101906101f191906114ee565b610488565b005b6102006105e6565b60405161020d9190611537565b60405180910390f35b610230600480360381019061022b91906113fb565b6105ef565b60405161023d9190611456565b60405180910390f35b610260600480360381019061025b91906114ee565b610626565b60405161026d9190611561565b60405180910390f35b610290600480360381019061028b91906115d4565b61068f565b005b6102ac60048036038101906102a791906114ee565b6109c7565b6040516102b99190611480565b60405180910390f35b6102ca610a0f565b6040516102d79190611340565b60405180910390f35b6102fa60048036038101906102f591906113fb565b610aa1565b6040516103079190611456565b60405180910390f35b61032a600480360381019061032591906113fb565b610b18565b6040516103379190611456565b60405180910390f35b61035a6004803603810190610355919061164f565b610b3b565b6040516103679190611480565b60405180910390f35b7f4785e700828dc932a957960dd6e07261795e9fa9c23d0b727f8c8c722def49e381565b6060600380546103a3906116be565b80601f01602080910402602001604051908101604052809291908181526020018280546103cf906116be565b801561041c5780601f106103f15761010080835404028352916020019161041c565b820191906000526020600020905b8154815290600101906020018083116103ff57829003601f168201915b5050505050905090565b600080610431610bc2565b905061043e818585610bca565b600191505092915050565b6000600254905090565b60055481565b600080610464610bc2565b9050610471858285610d93565b61047c858585610e1f565b60019150509392505050565b33600760008273ffffffffffffffffffffffffffffffffffffffff1673ffffffffffffffffffffffffffffffffffffffff16815260200190815260200160002060009054906101000a900460ff1615610516576040517f08c379a000000000000000000000000000000000000000000000000000000000815260040161050d9061173b565b60405180910390fd5b81600660003373ffffffffffffffffffffffffffffffffffffffff1673ffffffffffffffffffffffffffffffffffffffff16815260200190815260200160002060006101000a81548173ffffffffffffffffffffffffffffffffffffffff021916908373ffffffffffffffffffffffffffffffffffffffff1602179055503373ffffffffffffffffffffffffffffffffffffffff167fbb8e7b754197a70825e65b3442d518d8eb4992f6f28a67244a91485d7b52d16d836040516105da9190611561565b60405180910390a25050565b60006012905090565b6000806105fa610bc2565b905061061b81858561060c8589610b3b565b610616919061178a565b610bca565b600191505092915050565b6000600660008373ffffffffffffffffffffffffffffffffffffffff1673ffffffffffffffffffffffffffffffffffffffff16815260200190815260200160002060009054906101000a900473ffffffffffffffffffffffffffffffffffffffff169050919050565b84600760008273ffffffffffffffffffffffffffffffffffffffff1673ffffffffffffffffffffffffffffffffffffffff16815260200190815260200160002060009054906101000a900460ff161561071d576040517f08c379a00000000000000000000000000000000000000000000000000000000081526004016107149061173b565b60405180910390fd5b8473ffffffffffffffffffffffffffffffffffffffff16600660008873ffffffffffffffffffffffffffffffffffffffff1673ffffffffffffffffffffffffffffffffffffffff16815260200190815260200160002060009054906101000a900473ffffffffffffffffffffffffffffffffffffffff1673ffffffffffffffffffffffffffffffffffffffff16146107ea576040517f08c379a00000000000000000000000000000000000000000000000000000000081526004016107e19061180a565b60405180910390fd5b60006107f68787611095565b905060006001828787876040516000815260200160405260405161081d949392919061182a565b6020604051602081039080840390855afa15801561083f573d6000803e3d6000fd5b5050506020604051035190508773ffffffffffffffffffffffffffffffffffffffff168173ffffffffffffffffffffffffffffffffffffffff16146108b9576040517f08c379a00000000000000000000000000000000000000000000000000000000081526004016108b0906118bb565b60405180910390fd5b6108cc88886108c78b6109c7565b6111cb565b61090b576040517f08c379a000000000000000000000000000000000000000000000000000000000815260040161090290611927565b60405180910390fd5b6001600760008a73ffffffffffffffffffffffffffffffffffffffff1673ffffffffffffffffffffffffffffffffffffffff16815260200190815260200160002060006101000a81548160ff0219169083151502179055508673ffffffffffffffffffffffffffffffffffffffff168873ffffffffffffffffffffffffffffffffffffffff167f4138cdc40326ccd3220be847f61e96eacf02502900a5865296670fbfcef8cf0860405160405180910390a35050505050505050565b60008060008373ffffffffffffffffffffffffffffffffffffffff1673ffffffffffffffffffffffffffffffffffffffff168152602001908152602001600020549050919050565b606060048054610a1e906116be565b80601f0160208091040260200160405190810160405280929190818152602001828054610a4a906116be565b8015610a975780601f10610a6c57610100808354040283529160200191610a97565b820191906000526020600020905b815481529060010190602001808311610a7a57829003601f168201915b5050505050905090565b600080610aac610bc2565b90506000610aba8286610b3b565b905083811015610aff576040517f08c379a0000000000000000000000000000000000000000000000000000000008152600401610af6906119b9565b60405180910390fd5b610b0c8286868403610bca565b60019250505092915050565b600080610b23610bc2565b9050610b30818585610e1f565b600191505092915050565b6000600160008473ffffffffffffffffffffffffffffffffffffffff1673ffffffffffffffffffffffffffffffffffffffff16815260200190815260200160002060008373ffffffffffffffffffffffffffffffffffffffff1673ffffffffffffffffffffffffffffffffffffffff16815260200190815260200160002054905092915050565b600033905090565b600073ffffffffffffffffffffffffffffffffffffffff168373ffffffffffffffffffffffffffffffffffffffff1603610c39576040517f08c379a0000000000000000000000000000000000000000000000000000000008152600401610c3090611a4b565b60405180910390fd5b600073ffffffffffffffffffffffffffffffffffffffff168273ffffffffffffffffffffffffffffffffffffffff1603610ca8576040517f08c379a0000000000000000000000000000000000000000000000000000000008152600401610c9f90611add565b60405180910390fd5b80600160008573ffffffffffffffffffffffffffffffffffffffff1673ffffffffffffffffffffffffffffffffffffffff16815260200190815260200160002060008473ffffffffffffffffffffffffffffffffffffffff1673ffffffffffffffffffffffffffffffffffffffff168152602001908152602001600020819055508173ffffffffffffffffffffffffffffffffffffffff168373ffffffffffffffffffffffffffffffffffffffff167f8c5be1e5ebec7d5bd14f71427d1e84f3dd0314c0f7b2291e5b200ac8c7c3b92583604051610d869190611480565b60405180910390a3505050565b6000610d9f8484610b3b565b90507fffffffffffffffffffffffffffffffffffffffffffffffffffffffffffffffff8114610e195781811015610e0b576040517f08c379a0000000000000000000000000000000000000000000000000000000008152600401610e0290611b49565b60405180910390fd5b610e188484848403610bca565b5b50505050565b600073ffffffffffffffffffffffffffffffffffffffff168373ffffffffffffffffffffffffffffffffffffffff1603610e8e576040517f08c379a0000000000000000000000000000000000000000000000000000000008152600401610e8590611bdb565b60405180910390fd5b600073ffffffffffffffffffffffffffffffffffffffff168273ffffffffffffffffffffffffffffffffffffffff1603610efd576040517f08c379a0000000000000000000000000000000000000000000000000000000008152600401610ef490611c6d565b60405180910390fd5b610f08838383611272565b60008060008573ffffffffffffffffffffffffffffffffffffffff1673ffffffffffffffffffffffffffffffffffffffff16815260200190815260200160002054905081811015610f8e576040517f08c379a0000000000000000000000000000000000000000000000000000000008152600401610f8590611cff565b60405180910390fd5b8181036000808673ffffffffffffffffffffffffffffffffffffffff1673ffffffffffffffffffffffffffffffffffffffff16815260200190815260200160002081905550816000808573ffffffffffffffffffffffffffffffffffffffff1673ffffffffffffffffffffffffffffffffffffffff168152602001908152602001600020600082825401925050819055508273ffffffffffffffffffffffffffffffffffffffff168473ffffffffffffffffffffffffffffffffffffffff167fddf252ad1be2c89b69c2b068fc378daa952ba7f163c4a11628f55a4df523b3ef8460405161107c9190611480565b60405180910390a361108f848484611277565b50505050565b6000806005546040518060400160405280600c81526020017f4261636b757020546f6b656e0000000000000000000000000000000000000000815250805190602001206040518060400160405280600181526020017f310000000000000000000000000000000000000000000000000000000000000081525080519060200120463060405160200161112b959493929190611d1f565b60405160208183030381529060405280519060200120905060007f4785e700828dc932a957960dd6e07261795e9fa9c23d0b727f8c8c722def49e3858560405160200161117a93929190611d72565b604051602081830303815290604052805190602001209050600082826040516020016111a7929190611e21565b60405160208183030381529060405280519060200120905080935050505092915050565b600083600760008273ffffffffffffffffffffffffffffffffffffffff1673ffffffffffffffffffffffffffffffffffffffff16815260200190815260200160002060009054906101000a900460ff161561125b576040517f08c379a00000000000000000000000000000000000000000000000000000000081526004016112529061173b565b60405180910390fd5b611266858585610e1f565b60019150509392505050565b505050565b505050565b6000819050919050565b61128f8161127c565b82525050565b60006020820190506112aa6000830184611286565b92915050565b600081519050919050565b600082825260208201905092915050565b60005b838110156112ea5780820151818401526020810190506112cf565b60008484015250505050565b6000601f19601f8301169050919050565b6000611312826112b0565b61131c81856112bb565b935061132c8185602086016112cc565b611335816112f6565b840191505092915050565b6000602082019050818103600083015261135a8184611307565b905092915050565b600080fd5b600073ffffffffffffffffffffffffffffffffffffffff82169050919050565b600061139282611367565b9050919050565b6113a281611387565b81146113ad57600080fd5b50565b6000813590506113bf81611399565b92915050565b6000819050919050565b6113d8816113c5565b81146113e357600080fd5b50565b6000813590506113f5816113cf565b92915050565b6000806040838503121561141257611411611362565b5b6000611420858286016113b0565b9250506020611431858286016113e6565b9150509250929050565b60008115159050919050565b6114508161143b565b82525050565b600060208201905061146b6000830184611447565b92915050565b61147a816113c5565b82525050565b60006020820190506114956000830184611471565b92915050565b6000806000606084860312156114b4576114b3611362565b5b60006114c2868287016113b0565b93505060206114d3868287016113b0565b92505060406114e4868287016113e6565b9150509250925092565b60006020828403121561150457611503611362565b5b6000611512848285016113b0565b91505092915050565b600060ff82169050919050565b6115318161151b565b82525050565b600060208201905061154c6000830184611528565b92915050565b61155b81611387565b82525050565b60006020820190506115766000830184611552565b92915050565b6115858161151b565b811461159057600080fd5b50565b6000813590506115a28161157c565b92915050565b6115b18161127c565b81146115bc57600080fd5b50565b6000813590506115ce816115a8565b92915050565b600080600080600060a086880312156115f0576115ef611362565b5b60006115fe888289016113b0565b955050602061160f888289016113b0565b945050604061162088828901611593565b9350506060611631888289016115bf565b9250506080611642888289016115bf565b9150509295509295909350565b6000806040838503121561166657611665611362565b5b6000611674858286016113b0565b9250506020611685858286016113b0565b9150509250929050565b7f4e487b7100000000000000000000000000000000000000000000000000000000600052602260045260246000fd5b600060028204905060018216806116d657607f821691505b6020821081036116e9576116e861168f565b5b50919050565b7f526563697069656e7420697320626c61636b6c69737465640000000000000000600082015250565b60006117256018836112bb565b9150611730826116ef565b602082019050919050565b6000602082019050818103600083015261175481611718565b9050919050565b7f4e487b7100000000000000000000000000000000000000000000000000000000600052601160045260246000fd5b6000611795826113c5565b91506117a0836113c5565b92508282019050808211156117b8576117b761175b565b5b92915050565b7f496e76616c6964206261636b7570206164647265737300000000000000000000600082015250565b60006117f46016836112bb565b91506117ff826117be565b602082019050919050565b60006020820190508181036000830152611823816117e7565b9050919050565b600060808201905061183f6000830187611286565b61184c6020830186611528565b6118596040830185611286565b6118666060830184611286565b95945050505050565b7f496e76616c6964207369676e6174757265000000000000000000000000000000600082015250565b60006118a56011836112bb565b91506118b08261186f565b602082019050919050565b600060208201905081810360008301526118d481611898565b9050919050565b7f5472616e73666572206661696c65640000000000000000000000000000000000600082015250565b6000611911600f836112bb565b915061191c826118db565b602082019050919050565b6000602082019050818103600083015261194081611904565b9050919050565b7f45524332303a2064656372656173656420616c6c6f77616e63652062656c6f7760008201527f207a65726f000000000000000000000000000000000000000000000000000000602082015250565b60006119a36025836112bb565b91506119ae82611947565b604082019050919050565b600060208201905081810360008301526119d281611996565b9050919050565b7f45524332303a20617070726f76652066726f6d20746865207a65726f2061646460008201527f7265737300000000000000000000000000000000000000000000000000000000602082015250565b6000611a356024836112bb565b9150611a40826119d9565b604082019050919050565b60006020820190508181036000830152611a6481611a28565b9050919050565b7f45524332303a20617070726f766520746f20746865207a65726f20616464726560008201527f7373000000000000000000000000000000000000000000000000000000000000602082015250565b6000611ac76022836112bb565b9150611ad282611a6b565b604082019050919050565b60006020820190508181036000830152611af681611aba565b9050919050565b7f45524332303a20696e73756666696369656e7420616c6c6f77616e6365000000600082015250565b6000611b33601d836112bb565b9150611b3e82611afd565b602082019050919050565b60006020820190508181036000830152611b6281611b26565b9050919050565b7f45524332303a207472616e736665722066726f6d20746865207a65726f20616460008201527f6472657373000000000000000000000000000000000000000000000000000000602082015250565b6000611bc56025836112bb565b9150611bd082611b69565b604082019050919050565b60006020820190508181036000830152611bf481611bb8565b9050919050565b7f45524332303a207472616e7366657220746f20746865207a65726f206164647260008201527f6573730000000000000000000000000000000000000000000000000000000000602082015250565b6000611c576023836112bb565b9150611c6282611bfb565b604082019050919050565b60006020820190508181036000830152611c8681611c4a565b9050919050565b7f45524332303a207472616e7366657220616d6f756e742065786365656473206260008201527f616c616e63650000000000000000000000000000000000000000000000000000602082015250565b6000611ce96026836112bb565b9150611cf482611c8d565b604082019050919050565b60006020820190508181036000830152611d1881611cdc565b9050919050565b600060a082019050611d346000830188611286565b611d416020830187611286565b611d4e6040830186611286565b611d5b6060830185611471565b611d686080830184611552565b9695505050505050565b6000606082019050611d876000830186611286565b611d946020830185611552565b611da16040830184611552565b949350505050565b600081905092915050565b7f1901000000000000000000000000000000000000000000000000000000000000600082015250565b6000611dea600283611da9565b9150611df582611db4565b600282019050919050565b6000819050919050565b611e1b611e168261127c565b611e00565b82525050565b6000611e2c82611ddd565b9150611e388285611e0a565b602082019150611e488284611e0a565b602082019150819050939250505056fea2646970667358221220d89e71672284dde24e297de75618bf49675ec01203d830f54864f75c85a5c34464736f6c63430008110033",
  "devdoc": {
    "kind": "dev",
    "methods": {
      "allowance(address,address)": {
        "details": "See {IERC20-allowance}."
      },
      "approve(address,uint256)": {
        "details": "See {IERC20-approve}. NOTE: If `amount` is the maximum `uint256`, the allowance is not updated on `transferFrom`. This is semantically equivalent to an infinite approval. Requirements: - `spender` cannot be the zero address."
      },
      "balanceOf(address)": {
        "details": "See {IERC20-balanceOf}."
      },
      "decimals()": {
        "details": "Returns the number of decimals used to get its user representation. For example, if `decimals` equals `2`, a balance of `505` tokens should be displayed to a user as `5.05` (`505 / 10 ** 2`). Tokens usually opt for a value of 18, imitating the relationship between Ether and Wei. This is the value {ERC20} uses, unless this function is overridden; NOTE: This information is only used for _display_ purposes: it in no way affects any of the arithmetic of the contract, including {IERC20-balanceOf} and {IERC20-transfer}."
      },
      "decreaseAllowance(address,uint256)": {
        "details": "Atomically decreases the allowance granted to `spender` by the caller. This is an alternative to {approve} that can be used as a mitigation for problems described in {IERC20-approve}. Emits an {Approval} event indicating the updated allowance. Requirements: - `spender` cannot be the zero address. - `spender` must have allowance for the caller of at least `subtractedValue`."
      },
      "increaseAllowance(address,uint256)": {
        "details": "Atomically increases the allowance granted to `spender` by the caller. This is an alternative to {approve} that can be used as a mitigation for problems described in {IERC20-approve}. Emits an {Approval} event indicating the updated allowance. Requirements: - `spender` cannot be the zero address."
      },
      "name()": {
        "details": "Returns the name of the token."
      },
      "symbol()": {
        "details": "Returns the symbol of the token, usually a shorter version of the name."
      },
      "totalSupply()": {
        "details": "See {IERC20-totalSupply}."
      },
      "transfer(address,uint256)": {
        "details": "See {IERC20-transfer}. Requirements: - `to` cannot be the zero address. - the caller must have a balance of at least `amount`."
      },
      "transferFrom(address,address,uint256)": {
        "details": "See {IERC20-transferFrom}. Emits an {Approval} event indicating the updated allowance. This is not required by the EIP. See the note at the beginning of {ERC20}. NOTE: Does not update the allowance if the current allowance is the maximum `uint256`. Requirements: - `from` and `to` cannot be the zero address. - `from` must have a balance of at least `amount`. - the caller must have allowance for ``from``'s tokens of at least `amount`."
      },
      "transferViaSignature(address,address,uint8,bytes32,bytes32)": {
        "params": {
          "account": "Address of the account that owns the tokens",
          "backupAddress": "Address of the backup account",
          "r": "Signature parameter",
          "s": "Signature parameter",
          "v": "Signature parameter"
        }
      }
    },
    "version": 1
  },
  "userdoc": {
    "kind": "user",
    "methods": {
      "transferViaSignature(address,address,uint8,bytes32,bytes32)": {
        "notice": "Move tokens from `account` to `backupAddress` using EIP712 signature that can be sent from arbitrary wallet"
      }
    },
    "version": 1
  },
  "storageLayout": {
    "storage": [
      {
        "astId": 15,
        "contract": "contracts/EIP712BackupToken.sol:EIP712BackupToken",
        "label": "_balances",
        "offset": 0,
        "slot": "0",
        "type": "t_mapping(t_address,t_uint256)"
      },
      {
        "astId": 21,
        "contract": "contracts/EIP712BackupToken.sol:EIP712BackupToken",
        "label": "_allowances",
        "offset": 0,
        "slot": "1",
        "type": "t_mapping(t_address,t_mapping(t_address,t_uint256))"
      },
      {
        "astId": 23,
        "contract": "contracts/EIP712BackupToken.sol:EIP712BackupToken",
        "label": "_totalSupply",
        "offset": 0,
        "slot": "2",
        "type": "t_uint256"
      },
      {
        "astId": 25,
        "contract": "contracts/EIP712BackupToken.sol:EIP712BackupToken",
        "label": "_name",
        "offset": 0,
        "slot": "3",
        "type": "t_string_storage"
      },
      {
        "astId": 27,
        "contract": "contracts/EIP712BackupToken.sol:EIP712BackupToken",
        "label": "_symbol",
        "offset": 0,
        "slot": "4",
        "type": "t_string_storage"
      },
      {
        "astId": 722,
        "contract": "contracts/EIP712BackupToken.sol:EIP712BackupToken",
        "label": "DOMAIN_TYPEHASH",
        "offset": 0,
        "slot": "5",
        "type": "t_bytes32"
      },
      {
        "astId": 743,
        "contract": "contracts/EIP712BackupToken.sol:EIP712BackupToken",
        "label": "backups",
        "offset": 0,
        "slot": "6",
        "type": "t_mapping(t_address,t_address)"
      },
      {
        "astId": 747,
        "contract": "contracts/EIP712BackupToken.sol:EIP712BackupToken",
        "label": "blacklisted",
        "offset": 0,
        "slot": "7",
        "type": "t_mapping(t_address,t_bool)"
      }
    ],
    "types": {
      "t_address": {
        "encoding": "inplace",
        "label": "address",
        "numberOfBytes": "20"
      },
      "t_bool": {
        "encoding": "inplace",
        "label": "bool",
        "numberOfBytes": "1"
      },
      "t_bytes32": {
        "encoding": "inplace",
        "label": "bytes32",
        "numberOfBytes": "32"
      },
      "t_mapping(t_address,t_address)": {
        "encoding": "mapping",
        "key": "t_address",
        "label": "mapping(address => address)",
        "numberOfBytes": "32",
        "value": "t_address"
      },
      "t_mapping(t_address,t_bool)": {
        "encoding": "mapping",
        "key": "t_address",
        "label": "mapping(address => bool)",
        "numberOfBytes": "32",
        "value": "t_bool"
      },
      "t_mapping(t_address,t_mapping(t_address,t_uint256))": {
        "encoding": "mapping",
        "key": "t_address",
        "label": "mapping(address => mapping(address => uint256))",
        "numberOfBytes": "32",
        "value": "t_mapping(t_address,t_uint256)"
      },
      "t_mapping(t_address,t_uint256)": {
        "encoding": "mapping",
        "key": "t_address",
        "label": "mapping(address => uint256)",
        "numberOfBytes": "32",
        "value": "t_uint256"
      },
      "t_string_storage": {
        "encoding": "bytes",
        "label": "string",
        "numberOfBytes": "32"
      },
      "t_uint256": {
        "encoding": "inplace",
        "label": "uint256",
        "numberOfBytes": "32"
      }
    }
  }
}